S00B00006176722E73726563D0
S11300000C9480000C949D000C949D000C949D0015
S11300100C949D000C949D000C949D000C949D00E8
S11300200C949D000C949D000C949D000C949D00D8
S11300300C949D000C949D000C949D000C949D00C8
S11300400C9468070C949D000C949D000C949D00E6
S11300500C949D000C949D000C949D000C949D00A8
S11300600C949D000C949D000C949D000C949D0098
S11300700C949D000C949D000C949D000C949D0088
S11300800C949D000C949D000C949D00C100C5002F
S1130090CD00CD00C900CD00CD00CD00CD00CD00F8
S11300A0CD00CD00CD00CD00CD001601300165019D
S11300B09A01CF010402350266029702C802F902CE
S11300C02A035B038C03BD03EE03C004C404C80409
S11300D0CC04D004D404D804DC04E004E404E8042C
S11300E02805380548055805180668057805880563
S11300F09805A805B805C805D805E805F805080653
S113010011241FBECFEFD0E1DEBFCDBF11E0A0E0D0
S1130110B1E0E2EDFBE102C005900D92AC3DB10708
S1130120D9F721E0ACEDB1E001C01D92AA3FB207BE
S1130130E1F70E949F000C94E70D0C940000CF930C
S1130140DF931F92CDB7DEB70E948E0B0E94080783
S11301500E94530C89838091DC01882F90E0092E42
S1130160000CAA0BBB0B40E050E02EE030E0841BF7
S1130170950B2817390760F38A5B9F4FFC010C9499
S1130180B00D89810E94CF0009C089810E94250495
S113019005C089810E94220601C00000D9CFCF93F7
S11301A0DF9300D0CDB7DEB78A8381E089838A816B
S11301B0882F90E08B3F9105A9F08C3F910524F4A2
S11301C0873F910529F01CC08D3F9105A9F018C007
S11301D08981823020F089818150898311C080E136
S11301E089830EC08981803120F489818F5F89835E
S11301F007C081E0898304C081E08093DC010000B2
S11302008981882F90E0092E000CAA0BBB0B41E0DA
S113021050E02FE030E0841B950B2817390708F4D1
S11302200EC38B5A9F4FFC010C94B00D40E050E07C
S113023060E471E480E00E945B0A4FE852EC65E7F9
S11302407DE381E00E945B0A44EA50E765E471E4DF
S113025082E00E945B0A87EF91E00E94450BEFC2A7
S11302608981882F90E0A0E0B0E0BC01CD010E941C
S1130270960CDC01CB01AC01BD0180E00E945B0A5D
S11302808981882F90E0A0E0B0E0BC01CD010E94FC
S1130290960CDC01CB01AC01BD0181E00E945B0A3C
S11302A08981882F90E0A0E0B0E0BC01CD010E94DC
S11302B0960CDC01CB01AC01BD0182E00E945B0A1B
S11302C08FED91E00E94450BBAC28981882F90E09E
S11302D0A0E0B0E0BC01CD010E94960CDC01CB0192
S11302E0AC01BD0180E00E945B0A8981882F90E007
S11302F0A0E0B0E0BC01CD010E94960CDC01CB0172
S1130300AC01BD0181E00E945B0A8981882F90E0E5
S1130310A0E0B0E0BC01CD010E94960CDC01CB0151
S1130320AC01BD0182E00E945B0A8FEB91E00E9468
S1130330450B85C28981882F90E0A0E0B0E0BC0124
S1130340CD010E94960CDC01CB01AC01BD0180E023
S11303500E945B0A8981882F90E0A0E0B0E0BC0194
S1130360CD010E94960CDC01CB01AC01BD0181E002
S11303700E945B0A8981882F90E0A0E0B0E0BC0174
S1130380CD010E94960CDC01CB01AC01BD0182E0E1
S11303900E945B0A8FE791E00E94450B50C289815D
S11303A0882F90E0A0E0B0E0BC01CD010E94960C43
S11303B0DC01CB01AC01BD0180E00E945B0A8981B4
S11303C0882F90E0A0E0B0E0BC01CD010E94960C23
S11303D0DC01CB01AC01BD0181E00E945B0A898193
S11303E0882F90E0A0E0B0E0BC01CD010E94960C03
S11303F0DC01CB01AC01BD0182E00E945B0A8FEFFE
S11304009FEF0E94450B1BC28981882F90E0A0E0DA
S1130410B0E0BC01CD010E94960CDC01CB01AC0123
S1130420BD0180E00E945B0A8981882F90E0A0E0F2
S1130430B0E0BC01CD010E94960CDC01CB01AC0103
S1130440BD0181E00E945B0A8981882F90E0A0E0D1
S1130450B0E0BC01CD010E94960CDC01CB01AC01E3
S1130460BD0182E00E945B0AEAC18981882F90E085
S1130470A0E0B0E0BC01CD010E94960CDC01CB01F0
S1130480AC01BD0180E00E945B0A8981882F90E065
S1130490A0E0B0E0BC01CD010E94960CDC01CB01D0
S11304A0AC01BD0181E00E945B0A8981882F90E044
S11304B0A0E0B0E0BC01CD010E94960CDC01CB01B0
S11304C0AC01BD0182E00E945B0AB9C18981882F19
S11304D090E0A0E0B0E0BC01CD010E94960CDC01EC
S11304E0CB01AC01BD0180E00E945B0A8981882FA9
S11304F090E0A0E0B0E0BC01CD010E94960CDC01CC
S1130500CB01AC01BD0181E00E945B0A8981882F87
S113051090E0A0E0B0E0BC01CD010E94960CDC01AB
S1130520CB01AC01BD0182E00E945B0A88C18981D4
S1130530882F90E0A0E0B0E0BC01CD010E94960CB1
S1130540DC01CB01AC01BD0180E00E945B0A898122
S1130550882F90E0A0E0B0E0BC01CD010E94960C91
S1130560DC01CB01AC01BD0181E00E945B0A898101
S1130570882F90E0A0E0B0E0BC01CD010E94960C71
S1130580DC01CB01AC01BD0182E00E945B0A57C1D2
S11305908981882F90E0A0E0B0E0BC01CD010E94E9
S11305A0960CDC01CB01AC01BD0180E00E945B0A2A
S11305B08981882F90E0A0E0B0E0BC01CD010E94C9
S11305C0960CDC01CB01AC01BD0181E00E945B0A09
S11305D08981882F90E0A0E0B0E0BC01CD010E94A9
S11305E0960CDC01CB01AC01BD0182E00E945B0AE8
S11305F026C18981882F90E0A0E0B0E0BC01CD0144
S11306000E94960CDC01CB01AC01BD0180E00E948C
S11306105B0A8981882F90E0A0E0B0E0BC01CD01A5
S11306200E94960CDC01CB01AC01BD0181E00E946B
S11306305B0A8981882F90E0A0E0B0E0BC01CD0185
S11306400E94960CDC01CB01AC01BD0182E00E944A
S11306505B0AF5C08981882F90E0A0E0B0E0BC017E
S1130660CD010E94960CDC01CB01AC01BD0180E000
S11306700E945B0A8981882F90E0A0E0B0E0BC0171
S1130680CD010E94960CDC01CB01AC01BD0181E0DF
S11306900E945B0A8981882F90E0A0E0B0E0BC0151
S11306A0CD010E94960CDC01CB01AC01BD0182E0BE
S11306B00E945B0AC4C08981882F90E0A0E0B0E06A
S11306C0BC01CD010E94960CDC01CB01AC01BD0143
S11306D080E00E945B0A8981882F90E0A0E0B0E06E
S11306E0BC01CD010E94960CDC01CB01AC01BD0123
S11306F081E00E945B0A8981882F90E0A0E0B0E04D
S1130700BC01CD010E94960CDC01CB01AC01BD0102
S113071082E00E945B0A93C08981882F90E0A0E068
S1130720B0E0BC01CD010E94960CDC01CB01AC0110
S1130730BD0180E00E945B0A8981882F90E0A0E0DF
S1130740B0E0BC01CD010E94960CDC01CB01AC01F0
S1130750BD0181E00E945B0A8981882F90E0A0E0BE
S1130760B0E0BC01CD010E94960CDC01CB01AC01D0
S1130770BD0182E00E945B0A62C08981882F90E0FB
S1130780A0E0B0E0BC01CD010E94960CDC01CB01DD
S1130790AC01BD0180E00E945B0A8981882F90E052
S11307A0A0E0B0E0BC01CD010E94960CDC01CB01BD
S11307B0AC01BD0181E00E945B0A8981882F90E031
S11307C0A0E0B0E0BC01CD010E94960CDC01CB019D
S11307D0AC01BD0182E00E945B0A31C08981882F8F
S11307E090E0A0E0B0E0BC01CD010E94960CDC01D9
S11307F0CB01AC01BD0180E00E945B0A8981882F96
S113080090E0A0E0B0E0BC01CD010E94960CDC01B8
S1130810CB01AC01BD0181E00E945B0A8981882F74
S113082090E0A0E0B0E0BC01CD010E94960CDC0198
S1130830CB01AC01BD0182E00E945B0A0000000014
S11308400F900F90DF91CF910895CF93DF93CDB7A1
S1130850DEB76A970FB6F894DEBF0FBECDBF8A8F9E
S113086029E1E1E6F1E0CE010196DC0101900D926F
S11308702A95E1F78A8D882F90E08B3F9105D1F07E
S11308808C3F910524F4873F910549F0B4C08D3F16
S11308909105A1F18E3F910509F440C0ACC080914F
S11308A0DD01882309F4A2C08091DD018150809389
S11308B0DD019CC08091DE01282F30E08091DD01B4
S11308C0882F90E0AC014F5F5F4FC901880F991FDB
S11308D0880F991F820F931F9E012F5F3F4F820F36
S11308E0931F840F951FFC018081882309F480C025
S11308F08091DD018F5F8093DD017AC08091DE01FC
S1130900882341F08091DE0181508093DD011092B3
S1130910DE0171C082E08093DC016DC08091DE0154
S1130920882309F45AC08091DE01282F30E0809199
S1130930DD01482F50E0C901880F991F880F991FC6
S1130940820F931F9E012F5F3F4F820F931F840FCF
S1130950951FFC018081882F90E0092E000CAA0BC2
S1130960BB0B46E050E02AE030E0841B950B2817CF
S1130970390708F43FC08B599F4FFC010C94B00D0C
S113098084E08093DC0131C085E08093DC012DC0DC
S113099086E08093DC0129C087E08093DC0125C0D8
S11309A088E08093DC0121C089E08093DC011DC0D4
S11309B08AE08093DC0119C08BE08093DC0115C0D0
S11309C08CE08093DC0111C08DE08093DC010DC0CC
S11309D08EE08093DC01000008C08091DD018F5F10
S11309E08093DE011092DD0105C004C0000003C045
S11309F0000001C000008091DE01282F30E08091CA
S1130A00DD01482F50E0C901880F991F880F991FF5
S1130A10820F931F9E012F5F3F4F820F931F840FFE
S1130A20951FFC018081882F90E0092E000CAA0BF1
S1130A30BB0B41E050E02FE030E0841B950B2817FE
S1130A40390708F4F5C080599F4FFC010C94B00D90
S1130A5065E171E080E00E9434096AE171E081E0BF
S1130A600E9434096AE171E082E00E943409E0C026
S1130A706FE171E080E00E9434096AE171E081E095
S1130A800E9434096AE171E082E00E943409D0C016
S1130A9063E271E080E00E9434096AE171E081E080
S1130AA00E9434096AE171E082E00E943409C0C006
S1130AB067E271E080E00E9434096AE171E081E05C
S1130AC00E9434096AE171E082E00E943409B0C0F6
S1130AD065E171E080E00E9434096FE171E081E03A
S1130AE00E9434096AE171E082E00E943409A0C0E6
S1130AF06FE171E080E00E9434096CE271E081E012
S1130B000E9434096AE171E082E00E94340990C0D5
S1130B106FE171E080E00E94340960E371E081E0FC
S1130B200E9434096AE171E082E00E94340980C0C5
S1130B306FE171E080E00E94340966E371E081E0D6
S1130B400E9434096AE171E082E00E94340970C0B5
S1130B506FE171E080E00E9434096CE371E081E0B0
S1130B600E9434096AE171E082E00E94340960C0A5
S1130B7063E271E080E00E94340962E471E081E0A4
S1130B800E9434096AE171E082E00E94340950C095
S1130B9063E271E080E00E94340968E471E081E07E
S1130BA00E9434096AE171E082E00E94340940C085
S1130BB063E271E080E00E9434096EE471E081E058
S1130BC00E9434096AE171E082E00E94340930C075
S1130BD067E271E080E00E94340964E571E081E03D
S1130BE00E9434096AE171E082E00E94340920C065
S1130BF067E271E080E00E94340968E571E081E019
S1130C000E9434096AE171E082E00E94340910C054
S1130C1063E271E080E00E9434096DE571E081E0F7
S1130C200E9434096AE171E082E00E943409000004
S1130C3000006A960FB6F894DEBF0FBECDBFDF91F9
S1130C40CF910895CF93DF9300D01F92CDB7DEB735
S1130C508B838091DF010E947A0B8B81882F90E037
S1130C608B3F910571F18C3F910524F4873F9105E9
S1130C7051F078C08D3F910509F441C08E3F910534
S1130C8009F461C06FC08091DF01882F90E020914A
S1130C90DF01222F30E020503F4FF9012081203323
S1130CA051F02091DF01222F30E020503F4FF90115
S1130CB02081215001C029E380509F4FFC012083F3
S1130CC051C08091DF01882F90E02091DF01222F15
S1130CD030E020503F4FF9012081293351F0209119
S1130CE0DF01222F30E020503F4FF90120812F5F98
S1130CF001C020E380509F4FFC01208333C00E9439
S1130D00700B80E091E00E94C8069A8389838981F0
S1130D109A81892B31F089819A819093EB01809398
S1130D20EA011092DF0180E38093000180E3809365
S1130D30010180E38093020180E38093030181E059
S1130D408093DC010FC08091DF018F5F8093DF010E
S1130D508091DF0183708093DF018091DF010E9425
S1130D607A0B000065E171E080E00E9434096FE7CE
S1130D7071E081E00E94340960E071E082E00E9449
S1130D80340900000F900F900F90DF91CF910895D8
S1130D90CF93DF9300D000D000D0CDB7DEB79E83D1
S1130DA08D831A8219821C821B8223C089819A81B5
S1130DB0880F991F9C01220F331F220F331F820FAC
S1130DC0931F9A8389838B819C812D813E81820F1D
S1130DD0931FFC018081282F30E089819A81820F42
S1130DE0931FC0979A8389838B819C8101969C83EE
S1130DF08B838B819C810497CCF289819A8126967E
S1130E000FB6F894DEBF0FBECDBFDF91CF9108952A
S1130E10CF93DF93CDB7DEB78BE390E02FEFFC01E8
S1130E2020838AE390E02FEFFC01208385E390E0A8
S1130E3025E330E0F90120812F77FC01208384E34E
S1130E4090E024E330E0F90120812068FC01208354
S1130E5085E690E025E630E0F90120812B7FFC0156
S1130E60208384E690E024E630E0F90120812460C8
S1130E70FC01208387E390E027E330E0F90120813F
S1130E802160FC01208388E390E028E330E0F9014D
S1130E9020812160FC01208387E590E027E530E094
S1130EA0F90120812160FC01208383E590E023E5A2
S1130EB030E0F90120812760FC01208382E590E085
S1130EC02EE7FC01208378940000DF91CF910895F0
S1130ED01F920F9200905F000F9211242F933F9363
S1130EE04F935F936F937F938F939F93AF93BF932E
S1130EF0EF93FF93CF93DF93CDB7DEB782E590E016
S1130F002EE7FC0120830E949A070000DF91CF9115
S1130F10FF91EF91BF91AF919F918F917F916F91CD
S1130F205F914F913F912F910F9000925F000F902E
S1130F301F901895CF93DF931F92CDB7DEB78091A2
S1130F400501882331F480910601882311F481E09E
S1130F5069C08091E0018823B9F18091E201909108
S1130F60E30101969093E3018093E2014091E20151
S1130F705091E3019A01A9E8B8E80E94B60D96954C
S1130F808795929582958F7089279F7089276CE346
S1130F90689F9001699F300D1124CA01821B930B35
S1130FA09093E3018093E2018091E2019091E30147
S1130FB0892B51F48091E4018F5F8093E401809147
S1130FC0E40181708093E4018091E0018823B1F011
S1130FD08091E401882391F08091E101882F90E0D1
S1130FE0815F9E4FFC01808189838091E101882F7C
S1130FF090E0815F9E4F2FEFFC0120830E94160832
S11310008091E001882369F08091E401882349F00C
S11310108091E101882F90E0815F9E4F2981FC013E
S1131020208381E00F90DF91CF910895CF93DF93D8
S11310301F92CDB7DEB78BE390E02FEFFC01208346
S113104085E690E025E630E0F90120812B7FFC0164
S1131050208385E390E025E330E0F90120812F77B8
S1131060FC01208385E690E025E630E0F90120814B
S11310702460FC01208385E390E025E330E0F9015E
S113108020812068FC012083198231C085E690E02C
S113109025E630E0F90120812B7FFC0120838BE3DE
S11310A090E02981222F30E0255F3E4FF901208115
S11310B0FC012083809104010E945B0B8BE390E090
S11310C02FEFFC0120838091040198E7F92FF81B8E
S11310D08F2F0E945B0B85E690E025E630E0F90156
S11310E020812460FC01208389818F5F8983898129
S11310F0843060F2198231C085E690E025E630E064
S1131100F90120812B7FFC0120838BE390E029816E
S1131110222F30E0215F3E4FF9012081FC01208322
S1131120809104010E945B0B8BE390E02FEFFC01A4
S113113020838091040198E7F92FF81B8F2F0E94D8
S11311405B0B85E690E025E630E0F9012081246020
S1131150FC01208389818F5F89838981843060F2D7
S1131160198231C085E690E025E630E0F90120815E
S11311702B7FFC0120838BE390E02981222F30E038
S1131180295F3E4FF9012081FC01208380910401F5
S11311900E945B0B8BE390E02FEFFC012083809196
S11311A0040198E7F92FF81B8F2F0E945B0B85E64B
S11311B090E025E630E0F90120812460FC012083E1
S11311C089818F5F89838981843060F285E690E02C
S11311D025E630E0F90120812B7FFC0120838BE39D
S11311E090E020911301FC01208388E390E020919A
S11311F01401222F30E021703327232B31F028E310
S113120030E0F9012081216005C028E330E0F901D4
S113121020812E7FFC012083809104010E945B0BBE
S11312208BE390E02FEFFC01208388E390E028E338
S113123030E0F90120812160FC01208380910401C8
S113124098E7F92FF81B8F2F0E945B0B85E690E03F
S113125025E630E0F90120812460FC0120830000B0
S11312600F90DF91CF910895CF93DF9300D000D0FA
S11312701F92CDB7DEB78B837D836C8319828B81FC
S1131280833008F00FC18C819D81892B09F40AC138
S11312901A8204C18981882F90E02C813D81820FBC
S11312A0931FFC018081813468F18981882F90E04B
S11312B02C813D81820F931FFC0180818B3510F5B9
S11312C08B81282F30E08A81882F90E04981442F38
S11312D050E06C817D81460F571FFA014081442FF5
S11312E050E04753510949545E4FFA014081220F9F
S11312F0331F220F331F820F931F895F9E4FFC0100
S1131300408381C08981882F90E02C813D81820FA8
S1131310931FFC018081813668F18981882F90E0D8
S11313202C813D81820F931FFC0180818B3710F546
S11313308B81282F30E08A81882F90E04981442FC7
S113134050E06C817D81460F571FFA014081442F84
S113135050E04755510949545E4FFA014081220F2C
S1131360331F220F331F820F931F895F9E4FFC018F
S1131370408349C08981882F90E02C813D81820F70
S1131380931FFC018081803368F18981882F90E06C
S11313902C813D81820F931FFC0180818A3310F5DB
S11313A08B81282F30E08A81882F90E04981442F57
S11313B050E06C817D81460F571FFA014081442F14
S11313C050E04053510949545E4FFA014081220FC5
S11313D0331F220F331F820F931F895F9E4FFC011F
S11313E0408311C08B81282F30E08A81882F90E0C0
S11313F04FEF220F331F220F331F820F931F895F7A
S11314009E4FFC0140838981882F90E02C813D818F
S1131410820F931FFC018081882371F08981882FBA
S113142090E02C813D81820F931FFC0180818E32DC
S113143019F089818F5F89838981882F90E02C81BD
S11314403D81820F931FFC0180818E3221F58B81B7
S1131450282F30E08A81882F90E04B81642F70E040
S11314604A81442F50E0660F771F660F771F460F9F
S1131470571F495F5E4FFA0140814F7E220F331F91
S1131480220F331F820F931F895F9E4FFC014083FD
S113149089818F5F89838A818F5F8A838A8184307F
S11314A008F4F8CE00000F900F900F900F900F905B
S11314B0DF91CF9108950F931F93CF93DF93CDB70F
S11314C0DEB72D970FB6F894DEBF0FBECDBF898768
S11314D04A875B876C877D8720E030E04AE754E4E5
S11314E06A857B858C859D850E94FC0CDC01CB0183
S11314F0BC01CD010E94600CDC01CB018D839E8375
S1131500AF83B8878985833008F0B3C08DEF9FEF30
S11315109A83898317C08D819E81AF81B8852AE023
S113152030E040E050E0BC01CD010E94910DDA01B1
S1131530C9018D839E83AF83B88789819A8101967F
S11315409A83898389819A81992394F48D819E81D8
S1131550AF81B8852AE030E040E050E0BC01CD0125
S11315600E94910DDC01CB01892B8A2B8B2B99F2E4
S113157083E090E09C838B8377C08985082F10E0FB
S113158089819A811816190644F48D819E81AF8150
S1131590B885892B8A2B8B2B99F08D819E81AF8105
S11315A0B8852AE030E040E050E0BC01CD010E9463
S11315B0910DDC01CB0183559E4FFC01408101C09C
S11315C04FEF9801220F331F220F331F8B819C8111
S11315D0820F931F895F9E4FFC01408389819A810A
S11315E0892B31F58B819C81039714F58985882F8C
S11315F090E02985222F30E0A901440F551F440FA4
S1131600551F2B813C81240F351F295F3E4FF90163
S11316102081422F4F7E9C01220F331F220F331F44
S11316208B819C81820F931F895F9E4FFC014083B5
S11316308D819E81AF81B8852AE030E040E050E0A2
S1131640BC01CD010E94910DDA01C9018D839E83F5
S1131650AF83B88789819A8101969A8389838B8124
S11316609C8101979C838B838B819C8199230CF0B3
S113167084CF00002D960FB6F894DEBF0FBECDBF09
S1131680DF91CF911F910F910895CF93DF9300D0F5
S1131690CDB7DEB79A8389838981809313018981C9
S11316A09A81892F99278093140100000F900F903D
S11316B0DF91CF910895CF93DF9300D0CDB7DEB7FC
S11316C08A83198203C089818F5F898399818A8182
S11316D09817C8F300000F900F90DF91CF910895F1
S11316E0CF93DF93CDB7DEB71092E0010000DF9116
S11316F0CF910895CF93DF931F92CDB7DEB789833F
S113170081E08093E0018981843018F48981809399
S1131710E10100000F90DF91CF910895CF93DF9303
S1131720CDB7DEB781E390E021E330E0F901208119
S11317302E7FFC01208382E390E022E330E0F90174
S113174020812160FC01208381E390E021E330E0EB
S1131750F90120812F77FC01208382E390E022E3CA
S113176030E0F90120812068FC01208384E690E0C8
S113177024E630E0F90120812D7FFC01208385E6F9
S113178090E025E630E0F90120812260FC0120830D
S113179084E390E024E330E0F90120812B7FFC0115
S11317A0208385E390E025E330E0F9012081246083
S11317B0FC0120830000DF91CF910895CF93DF9344
S11317C01F92CDB7DEB780E390E0FC018081282F23
S11317D0217083E690E0FC0180818270282B80E3F5
S11317E090E0FC018081882F90E08078992795957E
S11317F087959595879595958795959587959595CD
S11318008795282B83E390E0FC018081882F90E06A
S113181084709927880F991F822B89838981806F0F
S1131820882F90E0019669F48091E501882F90E07B
S1131830019639F48091E601806F882F90E001963B
S113184069F18091E6019981981731F48091E7015B
S11318509091E801019602C081E090E09093E80144
S11318608093E70189818093E6018091E70190915B
S1131870E801C2979CF08091E5018295807F809376
S1131880E5019091E5018981892B8093E50110920E
S1131890E8011092E7018091E50101C080E00F901A
S11318A0DF91CF910895CF93DF931F92CDB7DEB729
S11318B00E94DE0B898389810F90DF91CF91089577
S11318C00E94670C6894B1110C94F60C08950E9460
S11318D0DB0C88F09F5798F0B92F9927B751B0F0D7
S11318E0E1F0660F771F881F991F1AF0BA95C9F7A0
S11318F014C0B13091F00E94F50CB1E008950C943D
S1131900F50C672F782F8827B85F39F0B93FCCF3EF
S1131910869577956795B395D9F73EF4909580951C
S1131920709561957F4F8F4F9F4F0895E89409C03C
S113193097FB3EF490958095709561957F4F8F4FFE
S11319409F4F9923A9F0F92F96E9BB279395F69514
S1131950879577956795B795F111F8CFFAF4BB0F92
S113196011F460FF1BC06F5F7F4F8F4F9F4F16C0F6
S1131970882311F096E911C0772321F09EE8872F80
S1131980762F05C0662371F096E8862F70E060E03C
S11319902AF09A95660F771F881FDAF7880F9695B5
S11319A0879597F9089557FD9058440F551F59F09E
S11319B05F3F71F04795880F97FB991F61F09F3F38
S11319C079F087950895121613061406551FF2CF61
S11319D04695F1DF08C0161617061806991FF1CFB1
S11319E086957105610508940895E894BB276627D8
S11319F07727CB0197F908950E940F0D0C94800D61
S1131A000E94720D38F00E94790D20F0952311F098
S1131A100C94690D0C946F0D11240C94F60C0E9417
S1131A20D30C70F3959FC1F3950F50E0551F629F3F
S1131A30F001729FBB27F00DB11D639FAA27F00D23
S1131A40B11DAA1F649F6627B00DA11D661F829F4A
S1131A502227B00DA11D621F739FB00DA11D621F2F
S1131A60839FA00D611D221F749F3327A00D611D4C
S1131A70231F849F600D211D822F762F6A2F11242E
S1131A809F5750409AF0F1F088234AF0EE0FFF1F61
S1131A90BB1F661F771F881F91505040A9F79E3FB8
S1131AA0510580F00C94690D0C94F60C5F3FE4F33F
S1131AB0983ED4F3869577956795B795F795E7950E
S1131AC09F5FC1F7FE2B880F911D9695879597F917
S1131AD0089597F99F6780E870E060E008959FEFAC
S1131AE080EC089500240A941616170618060906B1
S1131AF0089500240A941216130614060506089580
S1131B00092E0394000C11F4882352F0BB0F40F407
S1131B10BF2B11F460FF04C06F5F7F4F8F4F9F4F47
S1131B200895052E97FB1EF400940E94A80D57FDFE
S1131B3007D00E94C50D07FC03D04EF40C94A80DE9
S1131B4050954095309521953F4F4F4F5F4F0895E5
S1131B5090958095709561957F4F8F4F9F4F089515
S1131B60EE0FFF1F0590F491E02D0994A29FB001A0
S1131B70B39FC001A39F700D811D1124911DB29FBD
S1131B80700D811D1124911D0895A1E21A2EAA1B26
S1131B90BB1BFD010DC0AA1FBB1FEE1FFF1FA21719
S1131BA0B307E407F50720F0A21BB30BE40BF50B16
S1131BB0661F771F881F991F1A9469F7609570959F
S1131BC0809590959B01AC01BD01CF010895F894D7
S1051BD0FFCF41
S1131BD23030303078013CFFFFFFFFFFFFFFFFFF93
S1131BE2FFFFFFFFFF636F64650020202020007366
S1131BF265740064697300636F6E6E006E657400D1
S1131C027074202E75006374202E6900652E636C37
S1131C1265006469732E65006469732E7000622E18
S1131C226C6564006164640064617461006275647B
S1131C3200010203040005060000000708090A0067
S1131C420B0C0D00000E0F10000070757420007351
S1131C52657420006E657420006E2E333320006E8E
S1131C622E333420007074202E7520006374202ECD
S1131C7269200079657320006E6F202000505F3860
S1131C8219179190551011505F38191791905510EA
S1131C92111492F01AB0B4D016F65B94F2549E9AD0
S10F1CA23415BE91B252DA12971338FFC9
S9030000FC
